:020000040800F2
:1000000000000120D14F01082150010821500108B2
:1000100021500108E5140008ED140008000000005C
:100020000000000000000000000000002150010856
:100030002150010800000000215001081F73000832
:1000400021500108215001082150010821500108C8
:100050002150010821500108417500084B75000826
:10006000557500085F750008697500082150010882
:100070002150010821500108215001082150010898
:100080002150010821500108215001082150010888
:10009000000000002150010873750008215001087C
:1000A00041D700082150010855D7000869D700083A
:1000B0007DD7000891D700089D670008AD6700084C
:1000C000BD670008CD6700082150010821500108D4
:1000D0007981000891810008A98100082150010858
:1000E000215001088975000821500108215001089C
:1000F000215001080000000000000000215001080C
:10010000DD670008ED670008A952000821500108CA
:1001100021500108215001082150010821500108F7
:1001200021500108215001082150010821500108E7
:080130002150010821500108D3
:1001400001F0FF01102A2BDB10F0070F08D010F888
:10015000013B013A8B422DD010F0070F42B3F6D18C
:10016000F0B441EA012141EA014122F007047FF0A5
:1001700000070023F0E80256083C85EA010586EAFC
:10018000010685FA47F5A3FA87F586FA47F6A5FA38
:1001900087F68EB9EED1F0BC01F0FF0102F0070244
:1001A00032B110F8013B013A83EA010313B1F8D1EF
:1001B0000020704701387047002D06BF35460338D0
:1001C000073815F0010F07D1013015F4807F02BF09
:1001D000013015F4C03F0130F0BC0138704700BF5A
:1001E00010F8012B11F8013B012A28BF9A42F7D0E1
:1001F000D01A7047034613F8012B002AFBD1181AB6
:100200000138704781F0004102E000BF83F00043F5
:1002100030B54FEA41044FEA430594EA050F08BFA1
:1002200090EA020F1FBF54EA000C55EA020C7FEA65
:10023000645C7FEA655C00F0E2804FEA5454D4EBE2
:100240005555B8BF6D420CDD2C4480EA020281EAAC
:10025000030382EA000083EA010180EA020281EAE4
:100260000303362D88BF30BD11F0004F4FEA013136
:100270004FF4801C4CEA113102D0404261EB410145
:1002800013F0004F4FEA03334CEA133302D05242CB
:1002900063EB430394EA050F00F0A780A4F1010487
:1002A000D5F1200E0DDB02FA0EFC22FA05F28018C1
:1002B00041F1000103FA0EF2801843FA05F35941A7
:1002C0000EE0A5F120050EF1200E012A03FA0EFC26
:1002D00028BF4CF0020C43FA05F3C01851EBE37150
:1002E00001F0004507D54FF0000EDCF1000C7EEB6D
:1002F00000006EEB0101B1F5801F1BD3B1F5001FAB
:100300000CD349085FEA30004FEA3C0C04F10104C9
:100310004FEA445212F5800F80F09A80BCF1004FF2
:1003200008BF5FEA500C50F1000041EB045141EA74
:10033000050130BD5FEA4C0C404141EB0101013C3D
:1003400028BFB1F5801FE9D291F0000F04BF01462C
:100350000020B1FA81F308BF2033A3F10B03B3F1FE
:1003600020020CDA0C3208DD02F1140CC2F10C028E
:1003700001FA0CF021FA02F10CE002F11402D8BFEC
:10038000C2F1200C01FA02F120FA0CFCDCBF41EAB8
:100390000C019040E41AA2BF01EB0451294330BD87
:1003A0006FEA04041F3C1CDA0C340EDC04F1140464
:1003B000C4F1200220FA04F001FA02F340EA03003B
:1003C00021FA04F345EA030130BDC4F10C04C4F181
:1003D000200220FA02F001FA04F340EA0300294661
:1003E00030BD21FA04F0294630BD94F0000F83F4AB
:1003F000801306BF81F480110134013D4EE77FEA8E
:10040000645C18BF7FEA655C29D094EA050F08BFD9
:1004100090EA020F05D054EA000C04BF19461046BA
:1004200030BD91EA030F1EBF0021002030BD5FEAFE
:10043000545C05D14000494128BF41F0004130BD26
:1004400014F580043CBF01F5801130BD01F000457A
:1004500045F0FE4141F470014FF0000030BD7FEAED
:10046000645C1ABF194610467FEA655C1CBF0B46E8
:10047000024650EA013406BF52EA033591EA030FFF
:1004800041F4002130BD00BF90F0000F04BF0021F7
:10049000704730B54FF4806404F132044FF000052A
:1004A0004FF0000150E700BF90F0000F04BF0021A3
:1004B000704730B54FF4806404F1320410F0004509
:1004C00048BF40424FF000013EE700BF42004FEA04
:1004D000E2014FEA31014FEA02701FBF12F07F4381
:1004E00093F07F4F81F06051704732F07F4208BF38
:1004F000704793F07F4F04BF41F40021704730B53F
:100500004FF4607401F0004521F000411CE700BF8A
:1005100050EA010208BF704730B54FF000050AE00D
:1005200050EA010208BF704730B511F0004502D50E
:10053000404261EB41014FF4806404F132045FEA10
:10054000915C3FF4D8AE4FF003025FEADC0C18BFB9
:1005500003325FEADC0C18BF033202EBDC02C2F1AB
:10056000200300FA03FC20FA02F001FA03FE40EA3D
:100570000E0021FA02F11444BDE600BF70B54FF041
:10058000FF0C4CF4E06C1CEA11541DBF1CEA13551F
:1005900094EA0C0F95EA0C0F00F0DEF82C4481EA87
:1005A000030621EA4C5123EA4C5350EA013518BFA7
:1005B00052EA033541F4801143F4801338D0A0FB94
:1005C00002CE4FF00005E1FB02E506F00042E0FB41
:1005D00003E54FF00006E1FB03569CF0000F18BF47
:1005E0004EF0010EA4F1FF04B6F5007F64F54074EF
:1005F00004D25FEA4E0E6D4146EB060642EAC62182
:1006000041EA55514FEAC52040EA5E504FEACE2EEE
:10061000B4F1FD0C88BFBCF5E06F1ED8BEF1004FF1
:1006200008BF5FEA500E50F1000041EB045170BD6D
:1006300006F0004646EA010140EA020081EA0301B1
:10064000B4EB5C04C2BFD4EB0C0541EA045170BDAD
:1006500041F480114FF0000E013C00F3AB8014F127
:10066000360FDEBF002001F0004170BDC4F1000470
:10067000203C35DA0C341BDC04F11404C4F12005F1
:1006800000FA05F320FA04F001FA05F240EA02004C
:1006900001F0004221F0004110EBD37021FA04F682
:1006A00042EB06015EEA430E08BF20EAD37070BD3C
:1006B000C4F10C04C4F1200500FA04F320FA05F09B
:1006C00001FA04F240EA020001F0004110EBD3709D
:1006D00041F100015EEA430E08BF20EAD37070BD0D
:1006E000C4F1200500FA05F24EEA020E20FA04F3E6
:1006F00001FA05F243EA020321FA04F001F0004195
:1007000021FA04F220EA020000EBD3705EEA430E05
:1007100008BF20EAD37070BD94F0000F0FD101F034
:100720000046400041EB010111F4801F08BF013C6D
:10073000F7D041EA060195F0000F18BF704703F0AB
:100740000046520043EB030313F4801F08BF013D32
:10075000F7D043EA0603704794EA0C0F0CEA1355EE
:1007600018BF95EA0C0F0CD050EA410618BF52EAA8
:100770004306D1D181EA030101F000414FF00000AE
:1007800070BD50EA410606BF1046194652EA4306BC
:1007900019D094EA0C0F02D150EA013613D195EA30
:1007A0000C0F05D152EA03361CBF104619460AD178
:1007B00081EA030101F0004141F0FE4141F4700182
:1007C0004FF0000070BD41F0FE4141F4780170BD72
:1007D00070B54FF0FF0C4CF4E06C1CEA11541DBFD7
:1007E0001CEA135594EA0C0F95EA0C0F00F0A7F8D9
:1007F000A4EB050481EA030E52EA03354FEA013106
:1008000000F088804FEA03334FF0805545EA131318
:1008100043EA12634FEA022245EA111545EA1065E0
:100820004FEA00260EF000419D4208BF964244F177
:10083000FD0404F5407402D25B084FEA3202B61A96
:1008400065EB03055B084FEA32024FF480104FF46A
:10085000002CB6EB020E75EB030E22BFB61A7546DE
:1008600040EA0C005B084FEA3202B6EB020E75EB71
:10087000030E22BFB61A754640EA5C005B084FEAD9
:100880003202B6EB020E75EB030E22BFB61A7546A6
:1008900040EA9C005B084FEA3202B6EB020E75EBB1
:1008A000030E22BFB61A754640EADC0055EA060E72
:1008B00018D04FEA051545EA16754FEA06164FEAB5
:1008C000C30343EA52734FEAC2025FEA1C1CC0D161
:1008D00011F4801F0BD141EA00014FF000004FF0EE
:1008E000004CB6E711F4801F04BF01430020B4F1AF
:1008F000FD0C88BFBCF5E06F3FF6AFAEB5EB030C67
:1009000004BFB6EB020C5FEA500C50F1000041EB63
:10091000045170BD0EF0004E4EEA113114EB5C0430
:10092000C2BFD4EB0C0541EA045170BD41F4801103
:100930004FF0000E013C90E645EA060E8DE60CEA0B
:10094000135594EA0C0F08BF95EA0C0F3FF43BAF28
:1009500094EA0C0F0AD150EA01347FF434AF95EADF
:100960000C0F7FF425AF104619462CE795EA0C0FC3
:1009700006D152EA03353FF4FDAE1046194622E790
:1009800050EA410618BF52EA43067FF4C5AE50EA6A
:1009900041047FF40DAF52EA43057FF4EBAE12E75A
:1009A0004FF0FF3C06E000BF4FF0010C02E000BF3B
:1009B0004FF0010C4DF804CD4FEA410C7FEA6C5C1E
:1009C0004FEA430C18BF7FEA6C5C1BD001B050EAC1
:1009D000410C0CBF52EA430C91EA030F02BF90EAAC
:1009E000020F0020704710F1000F91EA030F58BF6B
:1009F000994208BF90422CBFD8176FEAE37040F0CD
:100A0000010070474FEA410C7FEA6C5C02D150EA6A
:100A1000013C07D14FEA430C7FEA6C5CD6D152EA25
:100A2000033CD3D05DF8040B704700BF84461046EA
:100A300062468C461946634600E000BF01B5FFF7E9
:100A4000B7FF002848BF10F1000F01BD4DF808EDB9
:100A5000FFF7F4FF0CBF012000205DF808FB00BF8A
:100A60004DF808EDFFF7EAFF34BF012000205DF8E4
:100A700008FB00BF4DF808EDFFF7E0FF94BF012031
:100A800000205DF808FB00BF4DF808EDFFF7CEFF32
:100A900094BF012000205DF808FB00BF4DF808ED71
:100AA000FFF7C4FF34BF012000205DF808FB00BF42
:100AB0004A0011D212F5001211D20DD56FF47873DD
:100AC000B3EB62520ED44FEAC12343F0004343EA32
:100AD000505323FA02F070474FF00000704750EA7D
:100AE000013002D14FF0FF3070474FF000007047E7
:100AF00080F0004002E000BF81F0004142001FBFD3
:100B00005FEA410392EA030F7FEA226C7FEA236CDB
:100B10006AD04FEA1262D2EB1363C1BFD2184140D0
:100B200048404140B8BF5B42192B88BF704710F066
:100B3000004F40F4000020F07F4018BF404211F009
:100B4000004F41F4000121F07F4118BF494292EA71
:100B5000030F3FD0A2F1010241FA03FC10EB0C009D
:100B6000C3F1200301FA03F100F0004302D549422A
:100B700060EB4000B0F5000F13D3B0F1807F06D3D7
:100B800040084FEA310102F10102FE2A51D2B1F1CF
:100B9000004F40EBC25008BF20F0010040EA0300C4
:100BA0007047490040EB0000013A28BFB0F5000F44
:100BB000EDD2B0FA80FCACF1080CB2EB0C0200FAFA
:100BC0000CF0AABF00EBC25052421843BCBFD04049
:100BD0001843704792F0000F81F4000106BF80F4C3
:100BE00000000132013BB5E74FEA41037FEA226C86
:100BF00018BF7FEA236C21D092EA030F04D092F051
:100C0000000F08BF0846704790EA010F1CBF002084
:100C1000704712F07F4F04D1400028BF40F00040E1
:100C2000704712F100723CBF00F50000704700F001
:100C3000004343F0FE4040F4000070477FEA226228
:100C400016BF08467FEA23630146420206BF5FEAF9
:100C5000412390EA010F40F4800070474FF00003F9
:100C600004E000BF10F0004348BF40425FEA000CC0
:100C700008BF704743F0964301464FF000001CE068
:100C800050EA010208BF70474FF000030AE000BFBE
:100C900050EA010208BF704711F0004302D54042FC
:100CA00061EB41015FEA010C02BF8446014600206E
:100CB00043F0B64308BFA3F18053A3F50003BCFA89
:100CC0008CF2083AA3EBC25310DB01FA02FC634436
:100CD00000FA02FCC2F12002BCF1004F20FA02F23D
:100CE00043EB020008BF20F00100704702F1200230
:100CF00001FA02FCC2F1200250EA4C0021FA02F291
:100D000043EB020008BF20EADC7070474FF0FF0C95
:100D10001CEAD0521EBF1CEAD15392EA0C0F93EA90
:100D20000C0F6FD01A4480EA010C400218BF5FEA32
:100D300041211ED04FF0006343EA501043EA5111A5
:100D4000A0FB01310CF00040B1F5000F3EBF49009F
:100D500041EAD3715B0040EA010062F17F02FD2AA3
:100D60001DD8B3F1004F40EBC25008BF20F0010086
:100D7000704790F0000F0CF0004C08BF49024CEA9D
:100D8000502040EA51207F3AC2BFD2F1FF0340EA2F
:100D9000C250704740F400004FF00003013A5DDCA0
:100DA00012F1190FDCBF00F000407047C2F10002E1
:100DB000410021FA02F1C2F1200200FA02FC5FEACE
:100DC000310040F1000053EA4C0308BF20EADC7018
:100DD000704792F0000F00F0004C02BF400010F48A
:100DE000000F013AF9D040EA0C0093F0000F01F037
:100DF000004C02BF490011F4000F013BF9D041EA59
:100E00000C018FE70CEAD15392EA0C0F18BF93EA5A
:100E10000C0F0AD030F0004C18BF31F0004CD8D184
:100E200080EA010000F00040704790F0000F17BF0B
:100E300090F0004F084691F0000F91F0004F14D051
:100E400092EA0C0F01D142020FD193EA0C0F03D1A9
:100E50004B0218BF084608D180EA010000F00040AC
:100E600040F0FE4040F40000704740F0FE4040F487
:100E7000400070474FF0FF0C1CEAD0521EBF1CEA26
:100E8000D15392EA0C0F93EA0C0F69D0A2EB030244
:100E900080EA010C49024FEA402037D04FF08053DE
:100EA00043EA111143EA10130CF000408B4238BFA3
:100EB0005B0042F17D024FF4000C8B4224BF5B1AB1
:100EC00040EA0C00B3EB510F24BFA3EB510340EAFF
:100ED0005C00B3EB910F24BFA3EB910340EA9C00AD
:100EE000B3EBD10F24BFA3EBD10340EADC001B011D
:100EF00018BF5FEA1C1CE0D1FD2A3FF650AF8B42C1
:100F000040EBC25008BF20F0010070470CF0004CCD
:100F10004CEA50207F32C2BFD2F1FF0340EAC250F8
:100F2000704740F400004FF00003013A37E792F0B9
:100F3000000F00F0004C02BF400010F4000F013A17
:100F4000F9D040EA0C0093F0000F01F0004C02BF12
:100F5000490011F4000F013BF9D041EA0C0195E77B
:100F60000CEAD15392EA0C0F08D142027FF47DAF14
:100F700093EA0C0F7FF470AF084676E793EA0C0F04
:100F800004D14B023FF44CAF08466EE730F0004C02
:100F900018BF31F0004CCAD130F000427FF45CAF92
:100FA00031F000437FF43CAF5FE700BF4FEA4002FF
:100FB000B2F1FE4F0FD34FF09E03B3EB12620DD987
:100FC0004FEA002343F0004310F0004F23FA02F0F1
:100FD00018BF404270474FF00000704712F1610F98
:100FE00001D1420205D110F0004008BF6FF000406F
:100FF00070474FF00000704742000ED2B2F1FE4F32
:101000000BD34FF09E03B3EB126209D44FEA0023D7
:1010100043F0004323FA02F070474FF0000070479E
:1010200012F1610F01D1420202D14FF0FF3070473F
:101030004FF00000704700BF53B94AB9002908BFFC
:1010400000281CBF4FF0FF314FF0FF3000F00CB80C
:10105000ADF1080C6DE904CE16F04CFCDDF804E0AF
:10106000DDE9022304B07047704700BF10B5054C9E
:10107000237833B9044B13B10448AFF30080012344
:10108000237010BD4002002000000000CC7B01084E
:1010900008B5034B1BB103490348AFF3008008BDFB
:1010A0000000000044020020CC7B0108014B0360DB
:1010B000704700BF1C7C010810B50446FFF7F6FF1F
:1010C000102120460CF0ACFB204610BD10B4044C9F
:1010D0000460416082604FF0FF32C26010BC704714
:1010E0001C7C010808B50C2014F058FE08BD38B56A
:1010F0000446406814F07AFEE368B3F1FF3F0FD076
:10110000C3EB031300EB2310E060A568A089FFF791
:10111000A9FD2946FFF7FAFDFFF76EFF80B238BD43
:101120000001E060F1E7000030B583B004460D46F1
:10113000074B40F8183B05F00BFC7622294604F1DA
:10114000DC0010F05FFF24230193204603B030BD84
:101150006C7C010838B5054600F1DC04204610F02F
:101160007DFE98B1204610F019FD0521204610F0B3
:101170001CFD0521204610F024FD0021204610F022
:1011800092FC90B9204610F028FD38BD09490A4864
:1011900014F002FB002305E005EB430247F6FF7164
:1011A00091800133032BF7DDEFE70521204610F096
:1011B00024FDE7E7247C01082017002038B5044609
:1011C00000F1DC05284610F041FD18B9284610F062
:1011D00004FD38BD284610F015FC20611149FFF7C9
:1011E00095FDFFF709FFA080284610F0A7FBE060FF
:1011F000FFF7DCFE0314E38020810021284610F075
:1012000052FC18B947F6FF736381DFE7284610F0F8
:1012100057FC60610349FFF779FDFFF7EDFE608140
:10122000D4E700BF0000C84210B50446034B40F8A5
:10123000DC3B10F06DFE204610BD00BF6C7C010849
:1012400010B50446FFF7F0FF4FF48C7120460CF008
:10125000E7FA204610BD002070471030836B7BB149
:101260001A7812F0080F03D0DA695B69D31A00E02C
:1012700000231846002B00DB70476FF000407047DA
:10128000C36BB3B193F8312012F0080F13D010B430
:101290001A69596918685C68131A61EB04021846E8
:1012A000B3F1004F72F1000301D36FF0004010BCA6
:1012B00070470020704700231A461846B3F1004FCC
:1012C00072F10003D8D36FF00040D5E7704700B546
:1012D00083B000F11003986B58B101220DF10701A2
:1012E0000DF02AF801280FD19DF8070003B05DF832
:1012F00004FBD86B28B101220DF107010EF079FA39
:10130000F0E74FF0FF30EDE74FF0FF30EEE708B5C4
:1013100000F11003986B10B10DF0E8F808BDD86B20
:1013200010B10EF037FBF9E74FF0FF30F6E708B5E4
:1013300000F11003986B10B10DF0D2F908BDD86B15
:101340000028FBD00EF0E8FEF8E700B583B000F10E
:1013500010038DF80710986B38B101220DF10701C9
:101360000DF090FB03B05DF804FBD86B28B10122AF
:101370000DF107010FF05EF8F4E70020F2E700003E
:10138000012800D070474FF6FF739942FAD100B59B
:1013900083B0002100910B460A46034814F08AF9F5
:1013A00003B05DF804FB00BF5C02002008B500F14B
:1013B0001003986B10B10DF065FB08BDD86B10B130
:1013C0000FF038F8F9E70020F7E784B00DF1100CC2
:1013D0000CE90300694681E80C00039898420CD19F
:1013E000002300E0013383420AD2029AD25C0099C2
:1013F000C95C9142F6D0002000E0002004B07047A4
:101400000120FBE770470068704730B583B002AB3E
:1014100003E903000C46154632B11046FEF7EAFE1A
:1014200084420DD1002302E00020F9E70133A342FA
:1014300009D2009AD25CE95C9142F7D0002000E02A
:10144000002003B030BD0120FBE708B54FF6FF7167
:101450000120FFF795FF08BD38B50546064C202151
:10146000204605F0B2FA2946204605F039FA204612
:1014700005F0E1FA38BD00BF6C13002004E010F85D
:10148000011B064A916219464B1E9BB229B1034AC1
:10149000D26912F0800FFAD0F1E7704700380140AE
:1014A00000B5B3B00A460146684615F013FB0028A4
:1014B00002DC33B05DF804FB6846FEF79BFE81B2A8
:1014C0006846FFF7DBFFF4E70FB400B583B004A96B
:1014D00051F8040B0191FFF7E3FF03B05DF804EB53
:1014E00004B07047EFF3088000F056B8EFF30880BF
:1014F00000F052B870B5044601461B48FFF7E4FF00
:1015000021681A48FFF7E0FF61681948FFF7DCFF20
:10151000A1681848FFF7D8FFE1681748FFF7D4FF24
:1015200021691648FFF7D0FF61691548FFF7CCFF26
:10153000144EA1693046FFF7C7FF134DE1692846F5
:10154000FFF7C2FFA1693046FFF7BEFFE1692846F9
:10155000FFF7BAFF0D4C61680D48FFF7B5FF616AF0
:101560000C48FFF7B1FF70BD5C7D0108687D010884
:10157000787D0108887D0108987D0108A87D010813
:10158000B87D0108C87D0108D87D010800ED00E0A4
:10159000E87D0108F87D010810B504460D48FFF705
:1015A00093FF2046FFF7A6FF4FF0E023D3F82A1D54
:1015B00089B20948FFF788FFBFF34F8F0749CA6810
:1015C00002F4E062064B1343CB60BFF34F8F00BFC2
:1015D000FDE700BF087E0108207E010800ED00E065
:1015E0000400FA05406870477047002304E010F8D3
:1015F00003C001F803C001339342F8D3704710B51C
:101600008EB0044604E023685B6A2146684698472A
:1016100023689B68204698470028F4DC0EB010BD74
:1016200070B506460C461949194814F0B5F8002360
:101630000DE0584203F0030100F0030058BF41429F
:10164000705D22F00302134D2A4450540133A3422B
:1016500013DA1D461A46002BEBDADA1CE9E7614281
:1016600004F0030201F0030158BF4A4223F00303D0
:1016700008490B440021995401343F2C04DC2346D3
:10168000002CECDAE31CEAE7002070BD307E010894
:1016900020170020A008002070B505460E460C4912
:1016A0000C4814F050F8002404E0295D094814F0B7
:1016B0005AF80134B442F8DB0024AC5529460648F8
:1016C00014F0C8F90549034814F066F8204670BDC7
:1016D000407E010820170020900800204C7E010861
:1016E00084B070B5054605AC84E80E003C200CF0D3
:1016F00093F806463C22002114F0F6FCB646A446B8
:10170000BCE80F00AEE80F00BCE80F00AEE80F0029
:10171000BCE80F00AEE80F009CE803008EE8030071
:10172000AB6863B1EB689E63EE606B6801336B601E
:1017300000232B760120BDE8704004B07047AE60F6
:10174000EE60F2E784B030B58DB0044611A880E8B1
:101750000E006368CBB9EC460DF1500EBEE80F00E9
:10176000ACE80F00BEE80F00ACE80F009EE80700F1
:101770008CE8070011AB0ECB206805692046A8470E
:101780000DB0BDE8304004B070473C200CF044F888
:1017900005463C22002114F0A7FCA368AB63AC46CD
:1017A0000DF1440EBEE80F00ACE80F00BEE80F00DC
:1017B000ACE80F00BEE80F00ACE80F009EE80300A5
:1017C0008CE80300A560636801336360002323761F
:1017D0000120D5E70C2971D1F8B50446394F3A4DAF
:1017E0003946284613F0AFFF0A22B4F90410284600
:1017F00014F047F83549284613F0A5FF0A22B4F93A
:101800000610284614F03DF83149284613F09BFF96
:101810000A22B4F90810284614F033F82D49284656
:1018200013F091FF0A22B4F90A10284614F029F89F
:101830002949284613F087FF0A22B4F900102846E8
:1018400014F01FF82549284613F07DFF0A22B4F949
:101850000210284614F015F8B4F90430204E336015
:10186000B361B4F904303363B4F90430B364394676
:10187000284613F068FF0A22B4F90410284614F031
:1018800000F8B4F906307360B4F90830F361B4F9C4
:101890000A307363B4F906305B42B360B4F90830C0
:1018A0005B423362B4F90A305B42B363B4F900308F
:1018B0003366B4F90230B3660020F8BD4FF0FF3054
:1018C000704700BF507E010820170020687E010885
:1018D000787E0108887E0108987E0108AC7E0108A8
:1018E00048000020F0B58FB005464B68002B34DD72
:1018F0000C46012B38DD8E68B76BEC46B646BEE869
:101900000F00ACE80F00BEE80F00ACE80F00BEE827
:101910000F00ACE80F009EE803008CE803001EB146
:101920003C2130460BF07CFFA7606368013B63609D
:1019300000232376AC46EE46BEE80F00ACE80F006D
:10194000BEE80F00ACE80F00BEE80F00ACE80F00E7
:101950009EE803008CE8030003E03822002114F025
:10196000C3FB28460FB0F0BD0B681B6A9847F8E729
:1019700010B50446084B0360A06838B1836BA360C0
:101980000028F9D03C210BF04BFFF5E70023E36082
:1019900063602376204610BDD480010810B504464C
:1019A000FFF7E6FF1C2120460BF03AFF204610BD52
:1019B00000B585B0154B00221A70154B1B7BDBB1AF
:1019C000124B08221A70124B93F82430BBB10F4A05
:1019D000137863F07F0313700D4B93F83C308BB199
:1019E0000A4A137843F020031370084B1878FFF766
:1019F00033FD05B05DF804FB00230193E3E700230A
:101A00000293E9E700230393EFE700BF9E0800205D
:101A100048000020192809D933280AD93D280BD9B4
:101A20003E280CD03F280CD0402070474130C0B237
:101A300070474730C0B270470438C0B270472B209F
:101A400070472F20704703464138C0B2192818D973
:101A5000A3F16102D2B2192A0AD9A3F13002D2B29B
:101A6000092A08D92B2B09D02F2B09D0FF2070472A
:101A7000473BD8B270470433D8B270473E20704716
:101A80003F2070470230034BA3FB0030400880002A
:101A9000704700BFABAAAAAA70B505460E46044619
:101AA00000E001342078FFF7CEFF3F2802D8631B07
:101AB000B342F6D3641BA00800EB400014F003040B
:101AC00000D0013C204470BD2DE9F0410446884619
:101AD0001546364FA7FB01377F08002621E0207806
:101AE0008008FFF797FF287023781B0103F030036D
:101AF000607843EA1010FFF78DFF687063789B00F1
:101B000003F03C03A07843EA9010FFF783FFA8702E
:101B1000A07800F03F00FFF77DFFE8700334043544
:101B20000136BE42DBD3214AA2FB083222F0010378
:101B300003EB5203A8EB0303012B09D0022B19D0AE
:101B400023B14046FFF79EFFBDE8F0812B70F8E718
:101B500020788008FFF75EFF28702078000100F0F1
:101B60003000FFF757FF68703D23AB70EB70002328
:101B70002B71E6E720788008FFF74CFF2870237868
:101B80001B0103F03003607843EA1010FFF742FFB7
:101B900068706078800000F03C00FFF73BFFA870A1
:101BA0003D23EB7000232B71CBE700BFABAAAAAAA1
:101BB0002DE9F04104461546FFF76EFF0746022661
:101BC00028E02078FFF73FFF4FEA80086078FFF7B2
:101BD0003AFF40F3071040EA080028706078FFF7EA
:101BE00032FF4FEA0018A078FFF72DFF40F387037C
:101BF00043EA08036B70A078FFF725FF4FEA8018CF
:101C0000E078FFF720FF43B243EA0803AB700434E7
:101C100003350336BE42D4D3184AA2FB073222F062
:101C2000010303EB5203FB1A012B04D0022B0ED04D
:101C30003846BDE8F0812078FFF705FF8600607820
:101C4000FFF701FF40F3071333432B70F0E72078D1
:101C5000FFF7F9FE86006078FFF7F5FE40F3071303
:101C600033432B706078FFF7EEFE0601A078FFF794
:101C7000EAFE40F3870333436B70D9E7ABAAAAAA05
:101C800000B59BB04822002108A814F02DFA0023CB
:101C900002930393049305930693079314490A68E8
:101CA00022F4C06242F480620A600A6802F4C062F0
:101CB0000192019A2022089201221092119360222F
:101CC0001292139308A808F083FC00B1FEE74F239B
:101CD000029300210391049105910691079102A8B6
:101CE00008F0B2FF00B1FEE71BB05DF804FB00BFD7
:101CF0000004005870B58EB00121092014F0A0F83E
:101D00000121092014F016F9214B1C7814B120464A
:101D10000EB070BD19238DF82C3001238DF82D30B5
:101D20001C4B0C9300230D9302AB0EAA12E9070083
:101D300083E807000DF1140C8CE8070008AB83E87A
:101D40000700154D05F592660ECB30460CF003F9F1
:101D5000C5F88C6495F8A23403B9012424B974B190
:101D60000B4B01221A70D2E70B480023009301238A
:101D70001A46D0F88C140CF0BBF90446EFE707497B
:101D8000074813F009FD024B00221A70BFE700BF9D
:101D9000240F002080F0FA02740A0020C07E01089F
:101DA0002017002000B583B001E0002301930D4B04
:101DB000D3F88C040BF067FE0028F6D1094B002203
:101DC000C3F88024C3F88424D3F88C0408B10BF042
:101DD0004DFE0021044B1970092014F0ABF803B03C
:101DE0005DF804FB740A0020240F002000B583B0C6
:101DF00068460FF007FD684604F08CFF03B05DF8FD
:101E000004FB00002DE9F04FA7B083468A46FFF798
:101E100071FF3822002110A814F066F9684B1A7877
:101E20008DF840205B788DF84130FFF7DFFFCDF86B
:101E300043004FF00008C146CDF8348074E0614E95
:101E40006149304613F07FFC604811F050FC0146B8
:101E5000304613F0A1FC2B469C4225DD26AA02EB5E
:101E6000450247F6FF7122F8201C01350133F3E7E4
:101E70000022154608E047F6FF7126AB03EB450349
:101E800023F8201C0135013294420DDD9DF83E30CF
:101E90001344062BEFDC4E4931F8131026AB03EB4D
:101EA000450323F8201CEDE705EB0903162B01DCA5
:101EB000002434E00D9F67F07F038DF842304FEA35
:101EC000490307331D936C4613AE0FCE0FC40FCEDC
:101ED0000FC496E8070084E8070010AB0ECB3D481E
:101EE000FFF7FEFB07EB09030D934FF00009DFE757
:101EF00026AB03EB440333F8206C374F0A223146FC
:101F0000384613F0BAFC3549384613F01CFC09EB8F
:101F1000040326AA02EB430323F8516C0134A542C3
:101F2000E6DCA94408F10108D04525DA5BF8280071
:101F30000F909DF83F40002CF4D09DF83C100029F4
:101F400096D000949DF83E309DF83D201F4811F03A
:101F50004FFB054600283FF472AF00263546B442D9
:101F6000A2DD1A4811F09DFB26AB03EB450323F8D5
:101F7000200C01350136F2E7B9F1000F06DC1648F6
:101F800013F0F6FB002027B0BDE8F08F0D9B63F047
:101F90007F038DF842304FEA490909F107031D9389
:101FA0006C4613AD0FCD0FC40FCD0FC495E80700DD
:101FB00084E8070010AB0ECB0648FFF791FBDEE785
:101FC0004000002020170020DC7E01089816002029
:101FD00030000020280F0020B0070020F87E010804
:101FE00008B510210348FFF70DFFFFF7E1FCFFF7ED
:101FF000D9FE08BDA008002010B44C680B6873B16E
:102000001A7A02F080021A7242F020021A721946FD
:1020100000221A605A600160446010BC7047194683
:10202000F9E70000044A026000228260C260426058
:102030000261426102767047D480010802607047F5
:1020400082B030B585B084460C46154608AA42F8E1
:10205000043FEE460FCA8EE80F008CE80F00002305
:102060008CF81030CCF814508CF81930CCF81C4097
:102070008CF86030604605B0BDE8304002B0704773
:1020800002468068137E23B153698B4203DC1069DA
:1020900005E0002303E0002301E0806B01338B4265
:1020A00001DA0028F9D18B4201D0002070470123CA
:1020B000137651611061704710B504460846114609
:1020C000FFF7DEFF98B18446A646BCE80F00AEE8F5
:1020D0000F00BCE80F00AEE80F00BCE80F00AEE850
:1020E0000F009CE803008EE80300204610BD382254
:1020F0000021204613F0F8FFF7E7F0B58FB0054652
:102100000C464968002932DD00232376012935DC9D
:10211000A668EC46B646BEE80F00ACE80F00BEE885
:102120000F00ACE80F00BEE80F00ACE80F009EE81F
:1021300003008CE803001EB13C2130460BF070FB1D
:102140000023A360E3606360AC46EE46BEE80F0088
:10215000ACE80F00BEE80F00ACE80F00BEE80F00CF
:10216000ACE80F009EE803008CE8030003E038228F
:10217000002113F0B9FF28460FB0F0BD0239204608
:10218000FFF77EFF0646876BEC46BE46BEE80F00B3
:10219000ACE80F00BEE80F00ACE80F00BEE80F008F
:1021A000ACE80F009EE803008CE803001FB13C215F
:1021B00038460BF035FB0023B363E6606368013BF0
:1021C00063602C46EC46BCE80F000FC4BCE80F006F
:1021D0000FC4BCE80F000FC49CE8030084E80300B0
:1021E000C9E7F0B58FB00446002A03DB0D464B6803
:1021F000934207DC38220021204613F075FF204669
:102200000FB0F0BD1AB90B685B6A9847F7E7013B5E
:10221000934203D10B681B6A9847F0E7511E28468A
:10222000FFF72EFF0646876BEC46BE46BEE80F0062
:10223000ACE80F00BEE80F00ACE80F00BEE80F00EE
:10224000ACE80F009EE803008CE80300BB6BB363AF
:102250001FB13C2138460BF0E3FA6B68013B6B6021
:1022600000232B762546EC46BCE80F000FC5BCE8E2
:102270000F000FC5BCE80F000FC59CE8030085E800
:102280000300BCE782B008B50DF1080C8CE80C0027
:1022900000291EDB43688B4204DC0020BDE80840B7
:1022A00002B07047FFF7ECFE84460DF1080EBEE861
:1022B0000F00ACE80F00BEE80F00ACE80F00BEE86E
:1022C0000F00ACE80F009EE803008CE8030001203B
:1022D000E4E70020E2E782B070B58CB004460D461A
:1022E00010A981E80C004368AB4219DC0568EC4694
:1022F0000DF14C0EBEE80F00ACE80F00BEE80F0079
:10230000ACE80F009EE807008CE8070010AB0ECB8E
:102310002D692046A8470CB0BDE8704002B0704758
:10232000ADB90568EC460DF14C0EBEE80F00ACE807
:102330000F00BEE80F00ACE80F009EE807008CE835
:10234000070010AB0ECB6D692046A847E3E73C20A1
:102350000BF062FA06463C22002113F0C5FE691E0E
:102360002046FFF78DFE864635460DF1400CBCE851
:102370000F000FC5BCE80F000FC5BCE80F000FC56C
:102380009CE8030085E80300DEF83830B363CEF83C
:102390003860636801336360002323760120BAE765
:1023A0002DE9F04F91B004465FFA83F9B9F1000FBF
:1023B00008D1052380F860304FF0000A504611B074
:1023C000BDE8F08F0E460023437604F11405637ECA
:1023D000ABB1237E202B46D8DFE803F023454545EB
:1023E00045454545454242454542454545454545A6
:1023F0004545454545454545454545454200606996
:102400000368DB69012206A9984738B19DF81830A6
:1024100023EAE3732B7101236B71DAE74FF0FF338B
:10242000F6E7237CD3B1022384F860304FF0000A32
:10243000BAF1000FC2D004F11405637EC3B1237E4C
:102440007D2B27D100236376CDF800A0009B002BC5
:1024500040F0F183CDF804A0B34698E30123E3E70D
:1024600000236376B1E74FF0010A84F810A0DFE79C
:1024700060690368DB69012206A9984738B19DF8B5
:10248000183023EAE3732B7101236B71D7E74FF008
:10249000FF33F6E700230093D8E760690368DB6940
:1024A000012206A9984738B19DF8183023EAE37352
:1024B0002B7101236B717BE34FF0FF33F6E760690B
:1024C0000368DB69012206A9984738B19DF81830E6
:1024D00023EAE3732B7101236B7176E34FF0FF3333
:1024E000F6E7019F2FBB032384F86030F1E0019FE2
:1024F000F8E7019FF6E7019FF4E7019FF2E7019FEC
:10250000F0E7236801221A741DE028680368DB697C
:10251000012206A9984738B19DF8183023EAE373E1
:102520002B7101236B7111E04FF0FF33F6E73A4650
:102530005AB300226276A268511CE0688142E0D260
:102540006068A1608354637E002BDED0237E2F2B36
:1025500001D9392BEBD95E2B01D97A2B0BD9402B22
:1025600001D95A2B09D92B2B09D02D2B09D02E2B71
:1025700009D0009ADCE73A46DAE73A46D8E73A4625
:10258000D6E73A46D4E73A46D2E723681B7C002BCD
:1025900000F09F80042384F86030174699E0002300
:1025A000ADF81830079304F11406637E23B194F854
:1025B0001880002363763BE160690368DB690122D0
:1025C00003A9984738B19DF80C3023EAE3733371BF
:1025D00001237371EBE74FF0FF33F6E730680368D0
:1025E000DB69012203A9984738B19DF80C3023EA32
:1025F000E3733371012373711EE14FF0FF33F6E78C
:10260000022384F86030009F63E030680368DB6970
:10261000012203A99847A0B19DF80C3023EAE37387
:10262000337101237371217E71B1752911D09A4ADA
:102630001378002B00F0F080994200F0EC80023219
:10264000F6E74FF0FF33E9E7022384F86030009F9C
:102650003FE0002767763D4625E060690368DB6957
:10266000012203A9984748B19DF80C3023EAE3738F
:102670008AF8043001238AF805301BE04FF0FF335D
:10268000F4E7022384F86030009F21E003F0DF03C9
:10269000373BDBB20F2B15D843EA0515ADB200234B
:1026A00063760137FFB2032F11D804F1140A637E59
:1026B000002BD2D0237E002BE3D0402BE6D8303B3A
:1026C000DBB2E7E7032384F86030009F00E0019F5E
:1026D0007FBB002F00F09D8204F11405637E002B68
:1026E00000F0C880237E202B00F20B81DFE813F07E
:1026F000D6000901090109010901090109010901BE
:102700000901060106010901090106010901090182
:102710000901090109010901090109010901090169
:102720000901090109010901090109010901090159
:10273000060105F520539BB2B3F5806F15D305F55F
:1027400010539BB2B3F5806F15D30795002F6FD050
:10275000079B7F2B1DD8DBB2A268511CE068814229
:1027600013D26068A160835462E0C5F30905ADF837
:102770001850009FEAE7BDF81820C5F3090343EAA3
:10278000822303F580330793E0E7236801221A745C
:102790004EE000228DF80C2003F03F0242F0800250
:1027A0008DF80D209A09C3F38F131F2B06D862F002
:1027B0003F028DF80E200DF10F0320E002F03F02E2
:1027C00042F080028DF80E209A09B3F5806F05D291
:1027D00062F01F028DF80F2004AB10E002F03F0200
:1027E00042F080028DF80F201B0B43F0F0038DF8B0
:1027F00010300DF1110302E06568A0606A5413F80F
:10280000012DAAB1A168481CE568A842F4D322684A
:1028100001211174F3E7537813B10022627616E0B8
:10282000032384F86030009F53E7236801221A7461
:10283000637E002B3FF4D2AE237E00226276984561
:102840000ED0002B3FF4DCAE5C2B3FF4DEAEA26872
:10285000511CE0688142E8D26068A1608354E7E7D8
:1028600023681B7C0BB9019F33E7042384F8603095
:10287000009F2EE760690368DB69012206A998477B
:1028800038B19DF8183023EAE3732B7101236B7183
:1028900028E74FF0FF33F6E7FC7E0108237C5BB3AB
:1028A000022384F86030009F002F00F0B58104F10E
:1028B0001405637E43B3237E3A2B37D1002363761E
:1028C000002F35D06168A26800238B546768A66822
:1028D000039704968DF814303D467FB3DBF8005023
:1028E00065B3E9683846FDF77BFC38B3B5F90A30C3
:1028F0001BB305EB0315F3E70123D2E7002363764F
:10290000EAE601232374CFE760690368DB690122EB
:1029100006A9984738B19DF8183023EAE3732B7164
:1029200001236B71C7E74FF0FF33F6E7009FC7E75E
:10293000032384F86030BA4640E5002545B32946B4
:1029400035B309F1FF334FF00002204600F078F96B
:102950000546002800F0638104F11406637E002B15
:102960007AD0237E202B00F2AE80DFE803F087AC24
:10297000ACACACACACACACA9A9ACACA9ACACACACA0
:10298000ACACACACACACACACACACACACACACA90036
:1029900027687B680C930D963D6800E00135AB1904
:1029A0007A68934210D2AB5D4BB90E950F9610AB7F
:1029B00013E90C000CA903C9FEF707FD28B92B7811
:1029C000002BEBD00135FAE70025002D2DD0A368B0
:1029D00009950A9300238DF82C3003AB09AA07CA86
:1029E00003C31A70E2695368103391688B4224D88C
:1029F000A1F11003936013B3DBF804200AB3991A12
:102A000009115181CBF8043000225A811A72DA6020
:102A1000E3B106AE03AA07CA86E807001A7A62F095
:102A20007F021A72DD6019468BE77D68AB197B6007
:102A300001337B600023AB55C9E7012313740023E6
:102A4000E6E7CBF80030CBF80430DDE7042384F868
:102A50006030DDF800A0B1E460690368DB69012241
:102A600006A9984738B19DF8183023EAE37333710B
:102A70000123737175E74FF0FF33F6E7237CEBB169
:102A8000022384F86030009D002D00F0CB8004F11B
:102A90001406637ED3B1237E7D2B29D10023637678
:102AA0002E46002E40F0C18004F11407637E0BB364
:102AB000237E2C2B30D1002363762EE00123E0E728
:102AC0000023637648E701232374DDE76069036828
:102AD000DB69012206A9984738B19DF8183023EA2E
:102AE000E373337101237371D5E74FF0FF33F6E7DA
:102AF000009ED6E760690368DB69012206A9984752
:102B000038B19DF8183023EAE3733B7101237B71E0
:102B1000CEE74FF0FF33F6E73546CDB104F11407A9
:102B2000637ED3B1237E202B6FD8DFE803F0286EBD
:102B30006E6E6E6E6E6E6E6B6B6E6E6B6E6E6E6EBE
:102B40006E6E6E6E6E6E6E6E6E6E6E6E6E6E6B0016
:102B5000032384F86030AA4630E460690368DB69C7
:102B6000012206A9984738B19DF8183023EAE3738B
:102B70003B7101237B71D5E74FF0FF33F6E7237CF0
:102B8000002B3DD0022384F86030002E50D0226804
:102B90005168616093685B1AE3600021A1600BB922
:102BA0000123137404F11405637E002B3FF475AC0C
:102BB000237E272B3FF4F3AC222B3FF4F0AC04F13F
:102BC0001405637E002B3FF47AAC237E2F2B02D9B1
:102BD000392B7FF686AC5E2B02D97A2B7FF687AC39
:102BE000402B02D95A2B7FF684AC2B2B3FF483ACBD
:102BF0002D2B3FF482AC2E2B3FF481AC009F71E46F
:102C00000123C0E70023637688E7012323742E465F
:102C1000BBE7BA46FFF7D2BBBA46FFF7CFBB824647
:102C2000FFF7CCBBAA46FFF7C9BBB246FFF7C6BB4E
:102C3000B246FFF7C3BBDDF800A0FFF7BFBB00BF84
:102C40002DE9F04F8FB004460E461F4604F11405DF
:102C5000627EAAB1227E202A58D8DFE802F02357EC
:102C600057575757575757545457575457575757FD
:102C7000575757575757575757575757575754003E
:102C800060690368DB69012204A9984738B19DF89F
:102C9000103023EAE3732B7101236B71DAE74FF0F5
:102CA000FF33F6E7237C63B3022384F8603000250A
:102CB000002D57D004F11408637E53B3227E5B2AA3
:102CC00054D03AD8222A02D0272A40F03E832268E4
:102CD0005168616093685B1AE3600021A1600BB9E1
:102CE000012313740023ADF81030059304F1140789
:102CF000637E002B00F09F8194F818800023637698
:102D0000BBE20123D1E7002363769FE70125257409
:102D1000CEE760690368DB69012204A9984748B1DE
:102D20009DF8103023EAE37388F80430012388F813
:102D30000530C3E74FF0FF33F4E77B2A40F005830B
:102D4000337A03F08003337243F02003337200239D
:102D5000336073603B464FF0000231462046FFF778
:102D60001FFB054628460FB0BDE8F08F337A03F00D
:102D70008003337243F04003337200233360736087
:102D8000FFB227B9052384F860300025EAE7002365
:102D9000637604F11408637EABB1237E202B40D808
:102DA000DFE803F0253F3F3F3F3F3F3F3F3C3C3F95
:102DB0003F3C3F3F3F3F3F3F3F3F3F3F3F3F3F3F26
:102DC0003F3F3F3F3C0060690368DB69012204A983
:102DD000984748B19DF8103023EAE37388F804302F
:102DE000012388F80530D8E74FF0FF33F4E7237C60
:102DF00093B1022384F860300025002DB2D004F195
:102E00001408637E83B1237E5D2B21D1002363767A
:102E1000002D00F08380A5E70123EBE70023637614
:102E2000B7E701232374E8E760690368DB690122DF
:102E300004A9984748B19DF8103023EAE37388F855
:102E40000430012388F80530DDE74FF0FF33F4E765
:102E50000025DDE701221A74002174E03160716001
:102E60006DE0042384F860307CE760690368DB6907
:102E7000012204A9984748B19DF8103023EAE37372
:102E800089F80430012389F805306CE04FF0FF33F6
:102E9000F4E7237C93B1022384F86030A846B8F1AC
:102EA000000F00F0C48004F11409637E73B1237E27
:102EB0005D2B1FD100236376C1461CE00123EBE7A5
:102EC000002363764AE001232374E8E7606903681E
:102ED000DB69012204A9984748B19DF8103023EA24
:102EE000E37389F80430012389F80530DFE74FF0F8
:102EF000FF33F4E7A946B9F1000F40F09A8004F1DE
:102F0000140A637E002B77D0237E2C2B02D1002362
:102F10006376C146B9F1000F00F08280E3695A6818
:102F2000103299688A4295D810399960002993D057
:102F30007368002B92D0CA1A12115A817160002353
:102F40004B810B72CB6000298BD07B1E4FF00002AF
:102F50002046FFF775FE8046002866D004F114096C
:102F6000637E002B81D0237E202BACD801A252F8A7
:102F700023F000BF932E0008C72E0008C72E0008BC
:102F8000C72E0008C72E0008C72E0008C72E00084D
:102F9000C72E0008C72E0008C12E0008C12E000849
:102FA000C72E0008C72E0008C12E0008C72E000833
:102FB000C72E0008C72E0008C72E0008C72E00081D
:102FC000C72E0008C72E0008C72E0008C72E00080D
:102FD000C72E0008C72E0008C72E0008C72E0008FD
:102FE000C72E0008C72E0008C72E0008C72E0008ED
:102FF000C72E0008C12E000860690368DB69012242
:1030000004A9984748B19DF8103023EAE3738AF881
:10301000043001238AF8053076E74FF0FF33F4E7F8
:10302000032384F860304D469CE605469AE6454603
:1030300098E64D4696E660690368DB69012202A9BD
:10304000984738B19DF8083023EAE3733B710123B8
:103050007B7151E64FF0FF33F6E738680368DB69B0
:10306000012202A9984738B19DF8083023EAE3739A
:103070003B7101237B7104E14FF0FF33F6E702233C
:1030800084F8603091466EE038680368DB6901229D
:1030900002A99847A0B19DF8083023EAE3733B7179
:1030A00001237B71217E71B1752912D0AA4A137850
:1030B000002B00F0D580994200F0D1800232F6E773
:1030C0004FF0FF33E9E7022384F860304FF0000946
:1030D00049E04FF0000984F81990CA4629E0606978
:1030E0000368DB69012202A9984748B19DF80830BE
:1030F00023EAE3738BF8043001238BF8053020E0DA
:103100004FF0FF33F4E7022384F860304FF00009FA
:1031100026E003F0DF03373BDBB20F2B19D843EA7D
:103120000A1A1FFA8AFA0023637609F101095FFA85
:1031300089F9B9F1030F12D804F1140B637E002B47
:10314000CDD0237E002BDED0402BE2D8303BDBB24B
:10315000E3E7032384F860304FF0000900E0A9465C
:10316000B9F1000F05D1B9F1000F40F0A9804D462B
:10317000F8E50AF520539BB2B3F5806F17D30AF533
:1031800010539BB2B3F5806F18D3CDF814A0B9F1EA
:10319000000F72D0059B7F2B1ED8DBB2A268511C9A
:1031A000E068814214D26068A160835465E0CAF38C
:1031B000090AADF810A04FF00009E8E7BDF81020AB
:1031C000CAF3090343EA822303F580330593DEE75C
:1031D000236801221A7450E000228DF8082003F0C1
:1031E0003F0242F080028DF809209A09C3F38F1341
:1031F0001F2B06D862F03F028DF80A200DF10B0359
:1032000020E002F03F0242F080028DF80A209A0985
:10321000B3F5806F05D262F01F028DF80B2003AB6F
:1032200010E002F03F0242F080028DF80B201B0BF1
:1032300043F0F0038DF80C300DF10D0302E0A060B7
:103240006068425413F8012DBAB1A168481CD4F843
:103250000CC06045F3D3226801211174F2E7537862
:1032600013B10022627617E0032384F860304FF038
:10327000000978E7236801221A74637E002B3FF46B
:10328000ECAE237E0022627698450ED0002B3FF4F0
:10329000F6AE5C2B3FF4F8AEA268511CE0688142A8
:1032A000E8D26068A1608354E7E723681B7C0BB910
:1032B000A94658E7042384F860304FF0000952E72C
:1032C000D4F80080A768D8F804300A930B97D8F890
:1032D000005004E001352B78002BFBD10135EB19B0
:1032E000D8F8042093420ED2EB5D002BF3D10C955D
:1032F0000D970EAB13E90C000AA903C9FEF765F898
:103300000028E8D000E00025A5B1A468079508943E
:1033100000238DF8243004AB07AA07CA83E807000E
:10332000337A03F08003337243F005033372356060
:1033300074601CE7D8F80450EB19C8F80430013366
:10334000C8F804300023EB55DFE704F11408637E6E
:1033500023B1237E002234E0FC7E0108606903680B
:10336000DB69012204A9984748B19DF8103023EA8F
:10337000E37388F80430012388F80530E9E74FF05B
:10338000FF33F4E7294600293CD03E2A3AD80021F1
:103390006176571CFFB2224482F82030D8F8000032
:1033A0000368DB69012204A9984740B39DF81030F7
:1033B00023EAE37388F80430012388F80530237E7C
:1033C0003A462F2B01D9392BDCD95E2B01D97A2B28
:1033D0000BD9402B01D95A2B09D92B2B09D02D2BD6
:1033E00009D02E2B09D00021CDE72946CBE729466D
:1033F000C9E72946C7E72946C5E72946C3E74FF08D
:10340000FF33D5E7A318002183F8201094F820306B
:10341000742B0BD0662B1AD06E2B29D1042A3FF4C3
:10342000A1AC022384F8603000259BE4337A03F0DA
:103430008003337243F00603337201233370042A8E
:103440003FF490AC022384F860300D468AE4337A6E
:1034500003F08003337243F00603337200233370AA
:10346000052A3FF47FAC022384F86030002579E41C
:1034700004F1200894F820302B2B05D02D2B08D1F7
:1034800008F10108AA4606E008F101084FF0000A19
:1034900001E04FF0000A98F80020A2F13003DBB2FF
:1034A000092B05D92E2A40F05B810020014608E057
:1034B0000020014605E010EB0E0042F1000108F18A
:1034C000010898F800C0ACF13007FFB2092F18D8F6
:1034D0004FF09933834203F100438B4111D38A00AB
:1034E00042EA90728300181841EB0202031852411D
:1034F00018461146BE46FF439F424FF0FF339341AB
:10350000D9D2BCF1000F22D1BAF1000F15D000239F
:1035100083424FF000438B4101D2002718E0404224
:1035200061EB4101337A03F08003337243F00A0305
:10353000337230607160554613E1337A03F08003D3
:10354000337243F0080333723060716009E1002781
:10355000B1F5801F06D30A220023FDF76DFD013768
:103560003FB2F5E798F80020A2F13003DBB2092B57
:1035700004D801373FB208F10108F3E72E2A0FD033
:1035800098F80030652B2CD0452B2AD000231F44FF
:1035900098F80080B8F1000F00F084800025E0E08A
:1035A00008F1010801E008F1010898F80030303B0B
:1035B000DBB2092BE4D8B0F1993F6E4A71EB0202FD
:1035C000F1D24FEA810C4CEA907C8200101841EB5A
:1035D0000C0100184941C01841F10001013F3FB200
:1035E000E1E708F1010E98F801302D2B19D02B2BB3
:1035F0001BD04FF0000800239EF80020A2F1300CF1
:103600005FFA8CFCBCF1090F44D803EB8303303A1A
:1036100002EB4303DA19B2F59A7F0BDC0EF1010ECF
:10362000EAE708F1020EA846E5E708F1020E4FF0BE
:103630000008E0E7B8F1000F12D0BAF1000F0CD08B
:1036400000204FF00041337A03F08003337243F0DF
:103650000C033372C6E9000183E000200021F2E789
:10366000BAF1000F11D000204349FDF7CBFE01F164
:103670000041337A03F08003337243F00C0333725A
:1036800002460B46C6E900236BE000203A49FDF7ED
:10369000B9FEEEE7B8F1000F02D05B42F04676E7E4
:1036A000F04674E7FCF734FF89460090002F06DCF3
:1036B0007F4227E07F1008F101085FFA88F8002FA9
:1036C0003DD017F0010FF5D0DFF8B0B00BEBC8001C
:1036D000FDF799FE01904FEAC80004305844FDF709
:1036E00092FE0199FDF78EFE02460B460098494670
:1036F000FCF744FF89460090DCE77F1008F10108E1
:103700005FFA88F8DFB117F0010FF6D0DFF870B07C
:103710000BEBC800FDF777FE01904FEAC8000430BC
:103720005844FDF770FE0199FDF76CFE02460B460A
:1037300000984946FCF722FF89460090DDE7BAF180
:10374000000F01D009F10049337A03F0800333728E
:1037500043F00C033372009A4B46C6E9002300E0A5
:103760000025002D7FF4FEAA032384F86030FFF7C4
:10377000F9BA00BF999901000000F07F147D01089B
:10378000CC7C010870B5A4B004460E46154603680B
:103790004360C36883600023037480F820300246CE
:1037A0001EA8FEF74BFC1FAB93E807008DE807004F
:1037B0001E9B3246214605A8FEF742FC18342B46D4
:1037C0004FF00002214605A8FFF73AFA9DF8743041
:1037D0004BB10E4B229300232393229B3BB19DF8C8
:1037E000740024B070BD002322932393F5E7239B3C
:1037F00013F0010FF3D19DF82C30002BEFD0237A7A
:1038000013F0080FEBD04FF00300EAE7E9150008CA
:1038100008B54FF00003FFF7B5FF08BD10B502462D
:103820000B464FF00104FDF711F908B14FF0000409
:1038300004F0010010BD38B504460D4600220023F7
:10384000FDF704F960B922462B4620462946FCF7CD
:10385000DFFC22462B46FDF7F9F810B1012000E00D
:10386000002038BD000000002DE9F04F8DB0054666
:103870000C46037A03F07F03023B3E2B00F26D837C
:10388000DFE813F0E302E3029D029D0254036B03A1
:103890002B036B03F4026B033F006B036B036B039F
:1038A0006B036B036B036B036B036B036B036B03A8
:1038B0006B036B036B036B036B036B036B036B0398
:1038C0002B026B036B036B036B036B036B036B03C9
:1038D0006B036B036B036B036B036B036B036B0378
:1038E0006B036B036B036B036B036B036B036B0368
:1038F0006B036B036B036B036B036B036B036B0358
:10390000040203680193466818463146FFF786FFB4
:10391000E8B901983146FFF78EFF10BB0022002363
:1039200001983146FDF79CF828BB09238DF8163025
:10393000B1A3D3E9002301983146FDF7A5F800288B
:1039400059D04FF4807908254FF0000A22E0206812
:1039500003685B680422AC4998476368034463606A
:1039600024E1206803685B680422A74998476368DC
:10397000034463601AE1206803681B682D2198479F
:1039800063680344636006F10046CEE74FEA6909C5
:10399000013D6DB2002D33DBEF00DFF870B20BEBB1
:1039A000C500FDF730FD8046381D5844FDF72BFD5E
:1039B0004146FDF727FD019A3346FDF75BF80028E5
:1039C000E4D0DFF84C8208EBC500FDF71CFD834610
:1039D000381D4044FDF717FD5946FDF713FD02461B
:1039E0000B4601983146FCF7C9FD0E460190CA44CA
:1039F0000FFA8AFACAE74FF4807908254FF0000AD7
:103A000000220023019F38463146FDF747F838B1C0
:103A10007BA3D3E9002338463146FDF72BF840BBA2
:103A2000ADF814A001983146FDF742F880460390A6
:103A30000346784D41E0DFF8D48108EBC500FDF77F
:103A4000E2FC8346381D4044FDF7DDFC5946FDF796
:103A5000D9FC02460B4601983146FCF78FFD0E4615
:103A60000190AAEB090A0FFA8AFA4FEA6909013DA7
:103A70006DB2002DD4DBEF00DFF89C8108EBC500B0
:103A8000FDF7C1FC8346381D4044FDF7BCFC594698
:103A9000FDF7B8FC019A3346FDF700F80028E4D0A2
:103AA000C9E75E49A1FB0525ED089DF81620013AFE
:103AB0008DF81620A1FB0323DB08092BF1D8404623
:103AC000FCF7E2FC02460B4601983146FCF79EFBF0
:103AD00006460F462846FCF7D7FC02460B46304602
:103AE0003946FCF74BFD06460F46FCF7E1FF8146E1
:103AF0000490FCF7C9FC02460B4630463946FCF7F9
:103B000085FB02460B46FCF783FBFCF7D1FF4844DC
:103B10000490854218D80023049308F1010303930D
:103B2000BAF1000F10D0092B0ED90AF1010AADF835
:103B300014A00123039307E03849A1FB0212D20825
:103B40000492013B8DF81630049A344BA3FB021308
:103B5000DB0803EB8303B2EB430F03D19DF916306F
:103B6000002BE9DC039A0DF12E012C4BA3FB020381
:103B7000DB08184603EB8303A2EB4303303301F861
:103B8000013D13460246092BEFD8206803685B68A5
:103B90000DF12E02521A98476368034463609DF941
:103BA000161029B9BDF91430002B39D1606803E132
:103BB00004980AAD4B1E5AB271B1184BA3FB001307
:103BC000DB08194603EB8303A0EB4303303305F80E
:103BD000013D08461146EDE7691E2E2305F8013C1C
:103BE000206803685B680AAA521A9847636803440E
:103BF0006360D7E7AFF3008000000000D01263419C
:103C0000F168E388B5F8E43E107F0108147D0108EF
:103C1000CC7C010800CA9A3B08810108CDCCCCCCF1
:103C2000206803681B6865219847636803446360E4
:103C3000BDF91450002D1DDBA8B20DF12E01884BEB
:103C4000A3FB0023DB0803EB8302A0EB420292B24A
:103C5000303201F8012D024698B2092AEFD82068C7
:103C600003685B680DF12E02521A9847636803449B
:103C700063609BE7206803681B682D219847636891
:103C800003446360A8B2404280B2D6E70868036884
:103C90001B685B2198476368034463602D6895B196
:103CA00021462846FFF7E0FDB5F90A305BB115EB78
:103CB000031508D0206803681B682C2198476368A7
:103CC00003446360EBE7206803681B685D21984745
:103CD00063680344636018466EE0086803681B6805
:103CE0007B2198476368034463602F6850E0023388
:103CF0001D7815B15A789142F9D165B9E1B12068C2
:103D000003681B6898476368034463603178E9B1CE
:103D10000136544BECE7206803681B685C21984728
:103D2000636803446360206803681B6829469847FA
:103D3000636803446360E9E7206803685B68062200
:103D400049499847636803446360DFE72068036874
:103D50001B682221984763680344636020680368F6
:103D60001B683A21984763680344636021463846DC
:103D7000FFF77AFDB7F90A30ABB117EB031712D092
:103D8000206803681B682C219847636803446360BC
:103D90004FB1FE68206803681B682221984763685A
:103DA00003446360B2E7206803681B687D2198477D
:103DB00063680344636018460DB0BDE8F08F066881
:103DC0004568086803681B682221984763680344B4
:103DD00063600FE002331D7815B15A789142F9D132
:103DE00075B9F1B1206803681B689847636803449C
:103DF00063603D466F1EF5B116F8011B194BEAE7EB
:103E0000206803681B685C2198476368034463600B
:103E1000206803681B682946984763680344636009
:103E2000E7E7206803685B6806220F4998476368E4
:103E300003446360DDE7206803681B68222198471C
:103E40006368034463601846B6E7086803685B6804
:103E50006A6829689847636818446060ACE700BFE7
:103E6000CDCCCCCCFE7E0108187F010806684568E1
:103E7000002D26DB0DF12E070A22002330462946AD
:103E8000FDF7DAF8303207F8012DB146A8460A22CC
:103E9000002330462946FDF7CFF806460D46B9F116
:103EA0000A0F78F10003E7D2206803685B680DF120
:103EB0002E02D21B39469847636803446360184654
:103EC0007AE7086803681B682D21984763680344F4
:103ED0006360764265EB4505CCE7066845680DF101
:103EE0002E070A22002330462946FDF7A5F8303276
:103EF00007F8012DB146A8460A220023304629467C
:103F0000FDF79AF806460D46B9F10A0F78F100035D
:103F1000E7D2206803685B680DF12E02D21B394698
:103F20009847636803446360184645E7037853B1D4
:103F3000086803685B6804220D4998476368034476
:103F40006360606838E7086803685B6805220949B0
:103F50009847636803446360F3E7086803685B6835
:103F600004220549984763681844606024E700BF4D
:103F7000207F0108287F0108107F010800B583B069
:103F8000009100230193183005D06946FFF76CFCBF
:103F900003B05DF804FB009803685B6804220349E2
:103FA0009847019B18440190F2E700BF107F010879
:103FB00008B5FFF7E3FF08BD08B5FFF7F9FF08BD37
:103FC00000B583B06B4683E80600024693E8030021
:103FD000FDF71BFA03B05DF804FB00002DE9F04388
:103FE0008FB098460F46002976D0164629B108466C
:103FF000FCF700F90546346806E00025FBE70134CC
:1040000021780029FBD101346119736899420DD2DE
:10401000635D002BF4D10A940B950AAB93E806007C
:104020003846FFF7CDFF0028EAD000E00024002C3E
:1040300036D0002F54D03846FCF7DCF807940890AF
:1040400000238DF8243001AB07AA07CA83E80700D4
:104050000546002846D0304B0C9300230D930C9B53
:10406000002B43D004AB01AA07CA83E807009DF8E0
:104070001830012B45D098F8083003F0800388F8F9
:10408000083043F0050388F80830C8F80050059B55
:10409000C8F80430201E18BF01200FB0BDE8F0831F
:1040A0003846FCF7A7F80546431CD6F804904B4465
:1040B000B26893420DD87360B9F1000F0ED002467A
:1040C00049463846FDF791FA002309F805304C4679
:1040D000AFE701233374ACE70C46AAE74C46A8E7E8
:1040E0000020ABE700230C930D93B8E70D9B13F072
:1040F000010FB7D198F8083023F07F0388F8083013
:10410000C8E798F8083003F0800388F8083043F0D7
:10411000040388F80830B8E7CD1200082DE9F04311
:104120008FB098460F4600296FD0164629B1084631
:10413000FCF760F80546346806E00025FBE701342B
:1041400021780029FBD101346119736899420DD29D
:10415000635D002BF4D10A940B950AAB93E806003B
:104160003846FFF72DFF0028EAD000E00024002C9D
:104170002FD0002F4DD03846FCF73CF8079408901C
:1041800000238DF8243001AB07AA07CA83E8070093
:10419000054600283FD0284B0C9300230D930C9B21
:1041A000002B3CD004AB01AA07CA83E807009DF8A6
:1041B0001830012B38D098F8083063F07F0388F866
:1041C0000830C8F80C50201E18BF01200FB0BDE801
:1041D000F0833846FCF70EF80546431CD6F80490E9
:1041E0004B44B26893420DD87360B9F1000F0ED002
:1041F000024649463846FDF7F8F9002309F805302C
:104200004C46B6E701233374B3E70C46B1E74C469E
:10421000AFE70020B2E700230C930D93BFE70D9B9F
:1042200013F0010FBED1CEE798F8083003F07F03FA
:1042300088F80830C5E700BFCD1200082DE9F0432B
:10424000D3B005460E46FDF755FD28B39F49A0485B
:1042500011F0A2FA40F201239E4A9F4928A809F0D2
:10426000C7FF3A9BEBB19D4B3C939D4F3D9793F815
:10427000203013F0200F25D03C4627B3974B9C6984
:104280000CB3E1683846FBF7ABFFE0B1B4F90A3094
:10429000B3B104EB0314F3E792498D4811F07CFAB3
:1042A000A9E13B9B002BDED18F49894811F074FABC
:1042B0008E4B28938E4B28932CA809F0C8FE9AE1C8
:1042C000002400E000242694844B279300232493A9
:1042D000259306AB26AA92E8030083E80300002C8E
:1042E00037D0237A13F0200F33D03E917C4F3F9785
:1042F00091F8203013F0200F10D03C467FB18C692C
:104300006CB1E1683846FBF76BFF40B1B4F90A3095
:1043100013B104EB0314F3E7002400E000244894F5
:104320006E4B499306AB48AA92E8030083E803006A
:10433000034618B1027A12F0200F08D04693479135
:1043400024AB46AA92E8030083E803003FE0002381
:10435000F4E7624B4093624F419793F8203013F09B
:104360007F0F0BD103F080035C4A82F8203043F0CA
:10437000200382F8203000239361D361574B93F8D8
:10438000203013F0200F00F0FF803C4697B17FB142
:10439000524B9C6901E004EB03144CB1E1683846D0
:1043A000FBF71EFF20B1B4F90A30002BF3D1002433
:1043B000002C3AD04C94494B4D934AAC4CA9204622
:1043C000FDF71AFE24AB94E8030083E803002B7882
:1043D0000BAC8DF82C306B788DF82D300DF12E0252
:1043E000B11EA81CFDF770FB02300023235409AE58
:1043F0000A223146A87811F0A2FB06AB24AA92E863
:10440000030083E8030043AA82E8030045960F46B1
:104410000546002800F0C980002E00F04A8134468D
:10442000002E00F0C0800468B2E02C4A53681033BC
:104430009268934260D8A2F11008284BC3F8088014
:10444000B8F1000F5BD0254BDB69002B59D0A8EBEE
:10445000030212115A81214BC3F81C800023A8F8D3
:104460000A3088F80830C8F80C30B8F1000F60D076
:10447000C146002F4BD03846FBF7BCFE6B461F6091
:10448000586001221A720DF10C0C93E807008CE8B9
:104490000700002F3DD0174B509300235193509BA2
:1044A000002B3AD006AB03AA07CA83E807001B7AA1
:1044B000012B37D099F8083063F07F0389F8083072
:1044C000C9F80C70AFB3444674E700BF547F0108CD
:1044D00020170020687F0108740A0020880300204C
:1044E000A47F0108307F0108747F0108A87C0108BF
:1044F0007C7C0108CD120008714B01221A74A04681
:10450000B3E76F4BC3F81880C3F81C80A6E7002000
:10451000B4E7002350935193C1E7519B13F0010F6F
:10452000C0D1CFE799F8083003F07F0389F808304D
:10453000C6E7B8F1000F3FF43DAF614B9A6903E065
:104540002346984508D01A4632B1B2F90A30002BFA
:10455000F6D002EB0313F4E7B8F90A306BB108EBBD
:10456000031372B15BB1991A41F30F115181002B02
:104570007FF420AF524BDA611CE72346F1E70021BC
:10458000F4E74F498B61F2E7002413E704EB0314CF
:104590004CB1E1683046FBF723FE20B1B4F90A3094
:1045A000002BF3D100244CB325464E954F9703AB17
:1045B0004EAA92E8030083E8030006AA82E80300FB
:1045C0000A460BA9034640B14FF000008DF80000E9
:1045D000002970D06846FFF701FD28A93848FFF789
:1045E000EBFC2CA809F033FD364B2893364B28936F
:1045F0002CA809F02CFD53B0BDE8F0837B68103384
:10460000BA68934225D8A2F11008C7F80880B8F11B
:10461000000F20D06B6803B3A8EB030212115A817C
:10462000C5F804800023A8F80A3088F80830C8F8D4
:104630000C304FF000038DF81830B8F1000F11D096
:1046400043463A46314606A8FFF768FD50B1454655
:10465000ABE701233B74A046EBE7C5F80080C5F843
:104660000480DFE7B8F1000F19D02A6804E002EBFC
:104670000313984507D01A462AB1B2F90A30002B25
:10468000F5D12346F5E7B8F90A3053B108EB031327
:104690005AB143B1991A41F30F1151813BB12546EB
:1046A00083E72346F4E70021F7E72B60F6E76A602B
:1046B000F5E7354679E71A7A22F07F021A728CE71D
:1046C00088030020A87C01087C7C01082DE9F043C8
:1046D0009BB004460078334B1B78984202D01BB045
:1046E000BDE8F0830E46154662782E4B5B789A4201
:1046F000F5D1002705E031462046FFF79FFD12E087
:104700000137022FEBDC284B13F83720A3789A42AD
:10471000F6D1254B03EBC7035B68F11FE01D9847FB
:104720008046002DE7D1FDF761FB1E4B1A788DF80E
:1047300030205B788DF8313006238DF83230CDF89B
:104740003300D4F80330CDF83730DFF860901849E3
:10475000484610F0F8FF0A22D4F80310484611F03A
:10476000B7F8CDF83B800F231993A378062BC7D059
:104770001049484611F010F8EC460DF13C0EBEE829
:104780000F00ACE80F00BEE80F00ACE80F009EE899
:1047900007008CE807000CAB0ECB0748FCF7A0FF26
:1047A000AEE700BF400000201800002020170020C6
:1047B000B07F0108BC7F0108280F002070B5BCB095
:1047C000FDF798FA002831D07C497D4810F0E4FFCD
:1047D00000237C4A7C4911A809F00AFD239B53B3AE
:1047E0004FF00A0211A97948FFF712F8C4B254B386
:1047F000774B259300232693259B1BB9269B13F00B
:10480000010F24D06E4D7349284610F09CFF724B67
:1048100053F82410284610F0BFFF704B1193704BD3
:10482000119315A809F013FC3CB070BD6D496448A4
:1048300010F0B2FFF8E7249B002BD1D16A49604801
:1048400010F0AAFFE9E7002325932693D4E75F4BF6
:104850002793664D289593F8203013F0200F11D040
:104860002C4685B1594B9C696CB1E1682846FBF731
:10487000B7FC40B1B4F90A3013B104EB0314F3E709
:10488000002400E000243294504B339304AB32AA4E
:1048900092E8030083E8030003460A4618B1017A50
:1048A00011F0200F09D02B932C9243B11B682C9A46
:1048B00000920193002303932AE00023F3E701937E
:1048C000F8E7002637E000203AE0026843683492B7
:1048D000359301238DF8D830349D2846FBF78AFCA8
:1048E0000DF11202811EA81CFDF762F92B788DF8DC
:1048F00010306B788DF811300022811C04A8FFF76E
:10490000E5FEB4F90A30002B4DD004EB03140194FA
:10491000019C002C49D0009D00232D932E93012251
:104920008DF8BC2030933193DCB1E06894F9083005
:10493000002BC6DB012639900028C4D0FBF75AFCB7
:104940003A908DF8EC602DAB3CAA12E9070003C346
:104950001A703794389530AB37AA92E8030083E891
:10496000030029AB30AA92E8030083E8030004AAFD
:1049700082E8030005460028AFD0027A02F07F02E9
:10498000042AA2D0052A06D00023349335930123AC
:104990008DF8D830A0E7026843683492359300233D
:1049A0008DF8D83098E70024B1E70C4B11930C4BED
:1049B000119315A809F04BFB36E700BFF07F010803
:1049C00020170020687F0108740A00208803002057
:1049D000E91500083880010800000020A87C0108C3
:1049E0007C7C0108C87F010808800108A47F0108B9
:1049F00010B584B02C4C06224FF4E131204610F063
:104A0000D3FD2A49204610F0C7FE0021284802F0B5
:104A100073F92848FCF766FB2748FCF79BFB2748FF
:104A20000CF0E0FE02A80CF0EDFE254925480CF044
:104A3000D7FE012300933C22022123480FF084F982
:104A400038B3214C20460FF06CF90121204610F0BC
:104A5000BAFA0123E382A3820A23238220236382FA
:104A60001A49204610F098FE20460FF0E9FD00F0AC
:104A7000C9FC4FF0FF3000F0F9FB06234FF416524B
:104A8000134914480EF0C7FE40B1FFF797FE04B07B
:104A900010BD1149204610F07FFED2E70F490248B1
:104AA00010F07AFEF1E700BF2017002054800108C3
:104AB0006C130020440F00206C0200209C08002092
:104AC00005180108B00700202008002078800108A0
:104AD000E008002098160020608001088C80010802
:104AE00038B50C46154600E0A46BA16B19B1204601
:104AF000A8470028F8DD204638BD2DE9F84F80464C
:104B00000F464368012B02DC0AE0564503D008F14A
:104B1000080A56461EE0C8F80C00002388F8183032
:104B2000BDE8F88F356005F13806AD6B54B14DB175
:104B300029462046B8470028F4DC346004F13806E2
:104B4000A46BF3E7F4B134602646A46B002CFBD1D0
:104B500046F8389F3468002CD9D03A462146404662
:104B6000FFF7BEFF8346856B002DCED03A4629461F
:104B70004046FFF7B5FFD0F838900023CBF8383027
:104B80008363D3E735602E46AD6B002DFBD146F82D
:104B9000389FDFE730B599B00EA80CF033FE0EA8B1
:104BA00002F0B8F80EAA202110A80CF0F7FC364D40
:104BB0000024019440230093802322462146284666
:104BC0000FF0BEFE2C826C8210A9284610F0E4FD86
:104BD0002E49284610F0B7FD0A222D4B19682846A9
:104BE00010F04FFE2B49284610F0CCFD04A811F020
:104BF00083FA2949284610F0A6FD0A220B99284677
:104C000010F05CFE11E013F0800F1BD113F0200FA9
:104C100002D043238DF80E301B480A23038234232D
:104C2000438203A910F08FFD0134072C0EDC1B4BCF
:104C300003931B4B1B7813F0080FE4D041228DF82F
:104C40000C20E0E742228DF80D20DFE7154B1B78A2
:104C50003BB9154B1B786BB90B480FF0F1FC19B041
:104C600030BD094878230382342343820F4910F072
:104C70006AFDF1E7044878230382342343820C4918
:104C800010F061FDE8E700BF20080020B0800108B7
:104C90002813002090080020B88001082020200060
:104CA0009E0800209D0800203E000020208301086F
:104CB000C080010810B58EB00EE001240B4B1C70B3
:104CC0000B496846FCF70EFE22469DF834106846F4
:104CD00000F054FBFFF75EFF0548FCF783FC00285B
:104CE000EBDC024B00221A700EB010BD9D080020B4
:104CF000280F002010B590B002F00CFB0446FFF71F
:104D000049FF0EA80CF07EFD0EA802F003F800F09B
:104D100011F905E001229DF834106846FFF7D6FC32
:104D2000684600F06FFA0028F4D01148FCF7DFF96C
:104D3000104B18801048FCF741FA0023032B09DCC4
:104D4000591C0D4A02EB43039A880A4B23F81120A1
:104D50000B46F3E702F0DEFA201AC830C82805DC5B
:104D6000002801DD11F028F910B010BDC820F9E7C6
:104D7000440F0020300000206C0200202DE9F0419B
:104D800088B004460D46012807D01CB94FF6FF73C2
:104D90009D4271D008B0BDE8F0814FF6FF73994293
:104DA000F3D100260096334632463146454810F08E
:104DB00081FC454BC3F88064C3F88464C3F88C64F9
:104DC0004FF6FF72A3F89424404AC3F898240122B6
:104DD00083F89C2483F89D6483F8A0642A2283F8D6
:104DE000A22483F8A66483F8AC64394F2B23009384
:104DF00002220321384610F0D3F94FF0FF38CDF8E6
:104E000000801A230222394632480DF09DF9324AB9
:104E1000C8213248FCF75AF9314F39463148FCF77E
:104E200083F9314B0293314B0193CDF800803B461F
:104E3000402280212E480EF04FFE2E492E4810F0C1
:104E4000DEFD2E4905A810F0DAFD05A92C480CF06E
:104E50008BFC05A810F08BFD2A48FDF7E3F82A4BE0
:104E600003F128021A605A6003F585629A60DA60DD
:104E70001E7483F8206088E72248FCF779FD204CF7
:104E8000224B2360224BE361224BE36104F12C00AF
:104E900009F0DDF804F1100010F069FD164810F07B
:104EA00066FD13480EF04CFE0E48FCF7BDF90B48AA
:104EB000FCF7FCF8044B0022C3F88024C3F88424D8
:104EC00068E700BF64020020740A002000093D006A
:104ED00014090020E0080020E53B623D440F00205B
:104EE0006C1300206C020020A0860100801A0600CE
:104EF000200800200C7F010890080020C4800108D1
:104F0000B0070020280F00208803002060830108DC
:104F1000A87C01087C7C010808B54FF6FF710120D0
:104F2000FFF72CFF08BD08B54FF6FF710020FFF713
:104F300025FF08BD38B50546002408E004EB44030E
:104F40001C4A02EBC3031B7B012B27D001341A4BF5
:104F50001B68A3422DDD174904EB440001EBC0029E
:104F60009368EB1A51F83010B3FBF1F001FB1033EA
:104F700052689A42E2D904EB44030E4A02EBC3039F
:104F80001B7B002BE2D104EB440302EBC3030122A1
:104F90001A731B69002BD9D09847D7E704EB440359
:104FA00002EBC30300221A735B69002BCED0984733
:104FB000CCE738BD480000204400002010B5002098
:104FC00000F020FD00F0D7FA0021084600F0CEFBEB
:104FD00004220021012000F06BFD00231A464FF649
:104FE000FF71084600F057FB00244FF0040000F06A
:104FF0003FFD044BC3F87043C3F87443322003F001
:105000002FFE10BD540F002008B5002000F058FA04
:1050100008BD08B5012000F02FFC08BD70B505469D
:10502000BDF814002A4C012184F83810D9B284F854
:105030005010284E16F802C084F851C09DF810C0D8
:1050400084F852C01AB9A3F10B04012C33D9012AF8
:105050002FD01F4B002283F853201D4B01229A733F
:105060000539C9B291422BD9194B9883184C9DF838
:105070001830A377184B1B78E3779DF81C3084F821
:1050800020309DF8283084F82130FFF7BDFFFFF76E
:10509000C0FF04F1380000F009FC04F10E0000F03C
:1050A000E9FD284600F0AAFE84F856000B9B6360D9
:1050B00070BD0C2BCDD1064B012283F85320CCE7D9
:1050C0000B2802D80C229A83D0E7014B9883CDE7B6
:1050D000CC12002094810108C00000202DE9F84383
:1050E000044688469146BDF82070BDF824609DF8BE
:1050F00028509DF84030404A137003B10026002D1F
:1051000059D09DF82C203D4B1A70002000F026FA53
:105110003948012380F838305FFA88F380F850303E
:10512000374A125D80F8512080F852901CB9A8F1DE
:105130000B02012A46D9012C41D02F4A002182F8C6
:1051400053102D4A01219173053BDBB28B423ED9AE
:10515000294B9F83284CA577284B1B78E3779DF834
:10516000303084F820309DF83C3084F82130FFF74F
:105170004BFFFFF74EFF04F1380000F097FB04F1FE
:105180000E0000F077FDF0B200F054FB94F82130EF
:10519000012B25D040F2367000F010FC40F00401E5
:1051A000C9B240F2367000F035FB134B4FF6FF7278
:1051B0009A60BDE8F883114BFF221A70A5E7B8F199
:1051C0000C0FBAD10C4A012182F85310B9E70B2F0A
:1051D00003D813460C229A83BCE7074B9F83B9E799
:1051E00040F2367000F0EAFB00F0FB0140F236704E
:1051F00000F010FBD9E700BFCC120020C000002057
:1052000094810108184BD3F87023D3F874339A4271
:1052100027D030B5591C0F2900DD0021C3EBC30294
:10522000C3EBC202104B134403F130051C68D3F8E2
:1052300004E0D3F808C0DA680460C0F804E0C0F8FD
:1052400008C0C26010331030AB42EFD11A68026060
:105250009A889B7982808371034BC3F87413002072
:1052600030BD4FF0FF307047540F002010B504469A
:1052700000231A4640F26221084600F00CFA094B5E
:105280000021996593F8560000F0A4FDB4F1FF3FAA
:1052900003D0A00100F048F910BD6FF07F4000F08E
:1052A00043F9F9E7CC120020F0B583B00023ADF844
:1052B0000430022301AA12212A4806F051FD9DF86C
:1052C00004409DF8053043EA042413F0010F07D091
:1052D00000230093244B1B78B3B9244B00221A708F
:1052E00014F0020F35D0224A136801331360214BAA
:1052F000D3F870335C1C0F2C00DD00241D4AD2F85B
:105300007423A24205D1FEE74FF0FF30FFF7AEFF56
:10531000E3E7184DC3EBC302C3EBC203EE1830330F
:10532000E91834220431304600F03AFD124F07F1FB
:10533000240000F033FA97F9303086F8353097F9C9
:10534000313086F83630C5F870434FF0FF30FFF744
:105350008DFF022301AA1946024806F0ABFC03B0F8
:10536000F0BD00BF3C1300202D1300202C130020A3
:1053700028130020540F0020CC120020F8B5064658
:105380000C4615461C4B1B78002BFBD11A4640F2ED
:105390000121084600F07FF9184F012197F85600C7
:1053A00000F018FD97F85130062B1AD040F689000E
:1053B00000F004FB40F00401C9B240F6890000F09F
:1053C00029FA0E48C4770E3000F054FC0022214622
:1053D000304600F0D2FC0A4B1D70074B01221A70B8
:1053E000F8BD40F6890000F0E9FA00F0FB0140F654
:1053F000890000F00FFAE4E72C130020CC12002003
:105400002D13002070B58AB000F080FDFFF7D6FDA7
:10541000144800F079F940F6B83307930024069455
:10542000059404940125039502940826019600959D
:105430000C23224621461620FFF7F0FD089507941D
:1054400006940594049503940294019400962346CF
:105450002A460C212046FFF741FE322003F000FCD3
:105460000AB070BD00A1BC3308B500F0DEFC08BD79
:1054700008B500F003FD08BD08B500F03BFD08BD10
:1054800008B500F039FD08BD08B500F037FD08BDCE
:1054900008B500F035FD08BD08B513460A460146BB
:1054A000014806F007FC08BD3C13002008B5134670
:1054B0000A460146014806F053FC08BD3C13002093
:1054C00000B583B08DF8070001220DF1070180209F
:1054D000FFF7E2FF9DF807302BB9054B01221A7048
:1054E00003B05DF804FB024B02221A70F8E700BF1C
:1054F0003613002000B583B00A4B04221A70C0F3A3
:1055000007438DF80430C0F307238DF805308DF87C
:105510000600032201A98320FFF7BEFF03B05DF858
:1055200004FB00BF3613002000B583B00A4B0522F0
:105530001A70C0F307438DF80430C0F307238DF8C9
:1055400005308DF80600032201A98220FFF7A4FF91
:1055500003B05DF804FB00BF3613002000B583B034
:105560008DF8070001220DF107019F20FFF794FF3E
:1055700003B05DF804FB00B583B0FFF785FF012899
:105580000BD000238DF8073001220DF10701962082
:10559000FFF782FF03B05DF804FB01238DF80730AD
:1055A000F2E700B583B000F0400300F0200213439F
:1055B00000F01002134300F00802134300F004024D
:1055C000134300F00202134300F0010018438DF86A
:1055D000070001220DF107018920FFF75DFF03B0ED
:1055E0005DF804FB00B583B01C4B98420DD9E12354
:1055F0008DF80430E9238DF80530022201A99820A6
:10560000FFF74AFF03B05DF804FB154B984206D93B
:10561000D7238DF80430DB238DF80530EDE7114BEF
:10562000984206D9C1238DF80430C5238DF8053082
:10563000E3E70D4B984206D975238DF8043081239A
:105640008DF80530D9E7094B9842D6D96B238DF8F0
:1056500004306F238DF80530CFE700BF00E9A43593
:1056600080F8A9328044E52D000B6B1B40FC5419D7
:1056700000B583B08DF804008DF805108DF8062074
:105680008DF8073004220DEB02019520FFF704FF8F
:1056900003B05DF804FB00B583B04FEA102C8DF821
:1056A00000C08DF80100080A8DF802008DF8031083
:1056B000110A8DF804108DF805201A0A8DF80620BD
:1056C0008DF80730082269461046FFF7E5FE03B063
:1056D0005DF804FB00B583B000F007008DF804000E
:1056E000C1F307438DF80530C1F307238DF8063069
:1056F0008DF8071004220DEB02019720FFF7CCFE76
:1057000003B05DF804FB000010B582B00446124BF4
:105710001B78D3B1114A00236006E109FBF78CFC2A
:10572000030E8DF80430C0F307438DF80530C0F345
:1057300007238DF806308DF8070004220DEB0201D7
:105740008620FFF7A9FE02B010BDFFF74BFF024B0A
:1057500001221A70DEE700BF341300200048E80180
:10576000014B1878704700BF3713002000B583B095
:105770008DF804008DF80510022201A98F20FFF793
:105780008BFE03B05DF804FB02E000F8011B1A4633
:10579000531E9BB2002AF8D17047000010B582B0AA
:1057A0000446032201A91420FFF780FEFFF7D8FF6B
:1057B000207048B1012818D0142200212046FFF79C
:1057C000E3FF0F2323700EE09DF8043023719DF852
:1057D00005305B425B10A3719DF806305B425B10A5
:1057E00063710023A36002B010BD9DF804305B42DA
:1057F0005B1023739DF9053002339B1063739DF892
:1058000006305B425B10A373014B1B682361EAE720
:105810003013002000B583B08DF8071001230DF17F
:1058200007020146024806F0A1F903B05DF804FB47
:105830003C13002000B583B08DF8070001220DF164
:105840000701A020FFF728FE9DF807303F2B0FD956
:105850005B08002202E09B08511CCAB21F2BFAD839
:10586000D900C9B21144C9B240F20670FFF7D2FFA5
:1058700003B05DF804FB000000B583B08DF80700AD
:10588000C3B2094A137043B101220DF107018A2006
:10589000FFF702FE03B05DF804FB002140F2AC60AC
:1058A000FFF7B8FFF0E700BF3713002010B582B054
:1058B00004463E4B93E8030002AB03E90300207863
:1058C0003B4B1B78984206D12378032B2CD8DFE87A
:1058D00003F005422D54FFF7CFFFF5E76268354B23
:1058E000B3FBF2F31A0C8DF800201A0A8DF8012090
:1058F0008DF80230237B8DF80330637B8DF8043004
:10590000A1682D4A00234806C909FBF795FB030C43
:105910008DF80530030A8DF806308DF8070008224F
:1059200069468B20FFF7B8FD02B010BD2269214BFC
:10593000B3FBF2F31A0C8DF800201A0A8DF801203F
:105940008DF80230237D8DF80330042269468B20C8
:10595000FFF7A2FDE8E7237E8DF80030637E8DF827
:105960000130A37E8DF80230E37E8DF803300422EF
:1059700069468B20FFF790FDD6E762680D4BB3FBBD
:10598000F2F31A0C8DF800201A0A8DF801208DF818
:105990000230237B8DF80330637B8DF804300522C1
:1059A00069468B20FFF778FDBEE700BFE47B010866
:1059B000371300200000093D0048E80100B583B01E
:1059C000014601230DF10702034806F01FF99DF877
:1059D000070003B05DF804FB3C13002010B504463B
:1059E000FFF752FD012800D010BD40F62310FFF74D
:1059F000E5FF00F0F901214340F62310FFF70AFF0D
:105A0000F2E7000008B508B1164A106000F07EFA0F
:105A10000220FFF7E3FF0020134B1870FFF750FD43
:105A2000FFF72EFD01280FD0202140F61110FFF7BF
:105A3000F1FE202140F61210FFF7ECFEFFF714FDF7
:105A40000A4B01221A7008BD4021FFF743FE0021D6
:105A500040F61110FFF7DEFE4FF07F00FFF7A1FDCB
:105A6000ECE700BF38130020341300203613002069
:105A700010B582B004460020FFF7FAFC0220FFF7C1
:105A8000ADFF04F0040004F00203184304F0010425
:105A900004438DF8074001220DF107018420FFF730
:105AA000FBFC024B00221A7002B010BD361300201E
:105AB00070B582B00C461646012835D040F6D800A5
:105AC000FFF77CFF40F01E01C9B240F6D800FFF797
:105AD000A1FE0120FFF7DCFC0546844200DD44B254
